:020000040800F2
:10000000C80E002001010008F1290008F3290008AA
:10001000F7290008FB290008FF290008000000005C
:10002000000000000000000000000000032A00089B
:10003000052A000800000000072A0008092A000815
:100040001B0100081B0100081B0100081B01000820
:100050001B0100081B0100081B0100081B01000810
:100060001B0100081B0100081B0100081B01000800
:100070001B0100081B0100081B0100081B010008F0
:100080001B0100081B010008E15300081B010008C8
:100090001B0100081B0100081B0100081B010008D0
:1000A0001B0100081B0100081B0100081B010008C0
:1000B0001F500008B9500008A74F00081B01000896
:1000C0001B0100081B0100081B0100081B010008A0
:1000D0001B010008294E0008774E0008C54E000895
:1000E0001B0100081B0100081B010008DFF80CD0F1
:1000F00007F078FE00480047CB290008C80E002012
:100100000648804706480047FEE7FEE7FEE7FEE7B1
:10011000FEE7FEE7FEE7FEE7FEE7FEE763280008EE
:10012000ED00000831490143314A1160704770B554
:10013000002100230F22C47804B32D4C246804F45A
:10014000E064C4F5E064210AC1F10403CA404478C4
:1001500004FA03F18478144021430901254C067800
:10016000A155047804F01F050124AC4005786D11F9
:10017000AD0005F1E025C5F8004109E0047804F080
:100180001F050124AC401C4D0678761145F8264029
:1001900070BD1A4A0A400243154B1B1F1A60704774
:1001A00039B1134A121D12680243114B1B1D1A600C
:1001B00006E00F4A121D126882430D4B1B1D1A6088
:1001C0007047042808D14FF0E021096941F004018B
:1001D0004FF0E022116107E04FF0E021096921F0C2
:1001E00004014FF0E0221161704700000000FA05A1
:1001F0000CED00E000E400E080E100E080FFFF1F84
:1002000010B50446FA48844208D10121401501F096
:100210005DF90021601501F059F917E0F5488442B5
:1002200008D10121001501F051F90021201501F03C
:100230004DF90BE0F048844208D10121C80301F0D8
:1002400045F900214FF4004001F040F910BD30B5F0
:100250000246002000235068E84C20400D790C68CD
:1002600044EA0524204350609068E54C2040D1E9E1
:1002700002542C434D7944EA450420439060D06AEF
:1002800020F470000C7C641EE4B2234340EA035067
:10029000D06230BD00210160017141718160C16097
:1002A00001210174704721B1826842F0010282602D
:1002B00003E0826822F001028260704721B1826807
:1002C00042F48072826003E0826822F4807282606D
:1002D000704710B50023CBB21AB144681C43446088
:1002E00002E044689C43446010BD816841F008010D
:1002F00081607047014600208A6802F008020AB156
:10030000012000E000207047816841F00401816015
:100310007047014600208A6802F004020AB10120F9
:1003200000E00020704721B1826842F4A0028260A0
:1003300003E0826822F4A002826070470146002038
:100340008A6802F480020AB1012000E000207047B0
:1003500010B50A4600210023416821F46041531E74
:1003600041EA4331416010BD21B1426842F400626C
:10037000426003E0426822F4006242607047F0B5D8
:1003800004460D4600200021092D11DDE068A5F18D
:100390000A0606EB4607072606FA07F18843A5F189
:1003A0000A0606EB460603FA06F10843E0600CE095
:1003B000206905EB4507072606FA07F1884305EB98
:1003C000450603FA06F108432061072A0FDA606B3D
:1003D000561E06EB86071F2606FA07F18843561EAF
:1003E00006EB860605FA06F10843606322E00D2A53
:1003F0000FDA206BD61F06EB86071F2606FA07F1D9
:100400008843D61F06EB860605FA06F108432063EB
:1004100010E0E06AA2F10D0606EB86071F2606FA39
:1004200007F18843A2F10D0606EB860605FA06F1F0
:100430000843E062F0BD21B1826842F4801282601C
:1004400003E0826822F48012826070470146C86C23
:1004500080B2704766484C300068704721B14268EE
:1004600042F48062426003E0426822F480624260AB
:10047000704721B1426842F48052426003E0426812
:1004800022F48052426070470A460021816821F4BC
:10049000E04111438160704721B1826842F400421B
:1004A000826003E0826822F400428260704721B1DA
:1004B000826842F40212826003E0826822F402122F
:1004C00082607047014600208A6802F400120AB177
:1004D000012000E000207047F0B5044615460020DA
:1004E00000220026092911DDE068A1F10A0707EBC7
:1004F000470C072707FA0CF29043A1F10A0707EB14
:10050000470703FA07F21043E0600CE0206901EBB3
:10051000410C072707FA0CF2904301EB410703FA5D
:1005200007F210432061A06BC0F30156EF1C06F1E7
:10053000010CA7EB0C0707EB870C1F2707FA0CF23F
:100540009043EF1C06F1010CA7EB0C0707EB8707A4
:1005500001FA07F21043A063F0BD10B50A4600216E
:100560000023816B21F44011531E41EA0351816342
:1005700010BD08B5002300930090009B0B4400932E
:10058000009B1A6008BD08B502460020009000924A
:1005900001F12800009B184400900098006880B288
:1005A00008BD0A4600214168164B194011434160BD
:1005B00070474162826270470A460021416821F01B
:1005C0001F0111434160704740B109490831096872
:1005D00041F40001064A0832116007E0044908317D
:1005E000096821F40001024A0832116070470000D6
:1005F0000024014000280140003C0140FFFEF0FFC4
:10060000FDF7F1FFFFFD3FFF0246002013680B409E
:100610000BB1012000E000207047CA430260704720
:1006200070B502460020002300240B125568CEB29C
:1006300005EA060415681D4015B10CB1012000E063
:10064000002070BD00220A12D343036070470000EF
:1006500001684FF6FE7211400160002101604160A7
:100660008160C1608D49884208D18C490839496848
:1006700041F00F01894A083A51608AE087491431F4
:10068000884208D185490839496841F0F001834A18
:10069000083A51607DE081492831884208D17F497C
:1006A0000839496841F470617C4A083A516070E049
:1006B0007A493C31884208D178490839496841F47F
:1006C0007041764A083A516063E07449503188427B
:1006D00008D172490839496841F470216F4A083AD3
:1006E000516056E06D496431884208D16B49083940
:1006F000496841F47001694A083A516049E0674924
:100700007831884208D165490839496841F07061FB
:10071000624A083A51603CE06149884206D1011FB3
:10072000096841F00F01021F116032E05C49143189
:10073000884208D15A49091F096841F0F001584A16
:10074000121F116025E056492831884208D15449CA
:10075000091F096841F47061514A121F116018E0C5
:100760004F493C31884208D14D49091F096841F47D
:1007700070414B4A121F11600BE0494950318842C9
:1007800007D14749091F096841F47021444A121FE3
:100790001160704710B50022026847F6F0739A4363
:1007A0000C6A8B6823430C6923434C6923438C698F
:1007B0002343CC6923434C6A23438C6A23431A4363
:1007C0000260CB6843600B6883604B68C36010BDF8
:1007D0000021016041608160C1600161416181610E
:1007E000C161016241628162704721B1026842F0D9
:1007F0000102026004E002684FF6FE731A400260D4
:1008000070471AB103680B43036002E003688B432F
:1008100003607047416070470146486880B2704786
:1008200001460020002201F080531BB11C4B083B05
:100830001A6802E0194B083B1A6802EA01030BB17F
:10084000012000E00020704700F0805119B11449E8
:10085000091F086002E011490839486070470146E5
:100860000020002201F080531BB10D4B083B1A6899
:1008700002E00A4B083B1A6802EA01030BB10120AF
:1008800000E00020704700F0805119B10449091FB1
:10089000086002E0014908394860704708000240DA
:1008A0000804024001460020FE4A106800F03800AB
:1008B000084310607047FB49096821F00801F94AB4
:1008C000116011460968014311607047F5490968D4
:1008D00021F01001F34A11601146096801431160CB
:1008E0007047F148EF494860F04848607047EE486B
:1008F000EC494860ED4848607047EA48006940F0BC
:100900008000E84908617047E648006940F08000CF
:10091000E449086170470420E249C96801F0010117
:1009200009B101200EE0DF49C96801F0040109B1F5
:10093000022007E0DB49C96801F0100109B103207A
:1009400000E00420704700B502460423FFF7E3FFF0
:10095000034603E0FFF7DFFF0346521E012B01D1E0
:10096000002AF7D102B90523184600BD30B5044668
:1009700004254FF43020FFF7E6FF0546042D17D17C
:10098000C848006940F00200C64908610846446151
:10099000006940F0400008614FF43020FFF7D3FFBA
:1009A0000546C048006941F6FD710840BD4908612F
:1009B000284630BD10B504244FF43020FFF7C3FFA4
:1009C0000446042C16D1B748006940F00400B5492C
:1009D00008610846006940F0400008614FF430208B
:1009E000FFF7B1FF0446AF48006941F6FB710840CC
:1009F000AC490861204610BD00B502460423FFF74C
:100A00008AFF034603E0FFF786FF0346521E012BD1
:100A100001D1002AF7D102B90523184600BD10B54F
:100A200004244FF43020FFF7E7FF0446042C16D1CE
:100A30009C48006940F004009A4908610846006932
:100A400040F0400008614FF43020FFF7D5FF044626
:100A50009448006941F6FB710840924908612046BC
:100A600010BD00208F49C96901F0020109B10120C0
:100A700000E00020704730B5A5250424FFF7F1FF02
:100A800000B100254FF43020FFF75DFF0446042C31
:100A90003AD185488349886084488860084600695F
:100AA00040F0200008610846006940F040000861FD
:100AB0004FF43020FFF747FF0446042C1BD1794840
:100AC000006941F6DF71084076490861084600690F
:100AD00040F01000086176480580E002FFF733FF20
:100AE0000446052C10D06F48006941F6EF710840AC
:100AF0006C49086108E0052C06D06A48006941F697
:100B0000EF71084067490861204630BD78B5064658
:100B10000C46042500200090E802FFF714FF05466C
:100B2000042D24D15F48006940F001005D4908614F
:100B30003480E802FFF707FF0546042D10D1B01CF2
:100B40000090200C00990880E802FFF7FCFE0546A3
:100B50005448006941F6FE7108405249086106E0B8
:100B60005048006941F6FE7108404E490861284628
:100B700078BD70B504460D460426F002FFF7E3FE8B
:100B80000646042E11D14748006940F0010045494E
:100B900008612580F002FFF7D6FE0646414800694D
:100BA00041F6FE7108403F490861304670BD70B59E
:100BB00005460E460424E002FFF7C5FE0446042C59
:100BC00017D1394837498860384888600846006935
:100BD00040F0100008612E80E002FFF7B4FE0446EA
:100BE000052C06D02F48006941F6EF7108402D49C9
:100BF0000861204670BD2DE9F04304464FF6FF76AC
:100C00003746B046B1460425E443E6B2C4F30727AD
:100C1000C4F307484FEA1469E802FFF794FE05465B
:100C2000042D49D120481F49886020488860084623
:100C3000006940F010000861FF2E06D01C48083003
:100C40000680E802FFF77FFE0546042D08D1FF2F3E
:100C500006D017480A300780E802FFF774FE054601
:100C6000042D0AD1B8F1FF0F07D011480C30A0F8BD
:100C70000080E802FFF767FE0546042D0AD1B9F1AE
:100C8000FF0F07D00A480E30A0F80090E802FFF7E7
:100C90005AFE0546052D0FD00248006941F6EF7156
:100CA000084007E00020024023016745AB89EFCDF3
:100CB00000F8FF1F664908612846BDE8F08330B59B
:100CC000054604244FF43020FFF73DFE0446042C73
:100CD00041D160485E4988605F4888600846006985
:100CE00040F0200008610846006940F040000861BB
:100CF0004FF43020FFF727FE0446042C22D154483D
:100D0000006941F6DF7108405149086108460069F1
:100D100040F0100008611DB100205049088002E039
:100D2000A5204E4908804FF43020FFF70CFE044602
:100D3000052C10D04648006941F6EF71084044493F
:100D4000086108E0052C06D04148006941F6DF71D2
:100D500008403F490861204630BDF0B505460E46C3
:100D6000174604243B483A4988603B488860E002C3
:100D7000FFF7E9FD0446042C19D13548006940F01D
:100D800010003349086147F0F800304328433349E5
:100D9000891C0880E002FFF7D6FD0446052C06D02A
:100DA0002B48006941F6EF71084029490861204647
:100DB000F0BD2748C069800870472548006A704721
:100DC00000202349096801F0200109B1012000E059
:100DD0000020704729B11E4A126902431C4B1A6158
:100DE00004E01B4A12698243194B1A61704701469D
:100DF0000020012908D1164AD26902F001020AB185
:100E0000012008E0002006E0114AD2680A400AB139
:100E1000012000E0002070470D49C86070470420A1
:100E20000B49C96801F0010109B101200EE0084930
:100E3000C96801F0040109B1022007E00449C9684A
:100E400001F0100109B1032000E004207047000008
:100E50000020024023016745AB89EFCD00F8FF1F5A
:100E600010B50446CC48844208D10121042000F08A
:100E70002DFB0021042000F029FB46E0C7488442F6
:100E800008D10121082000F021FB0021082000F0FA
:100E90001DFB3AE0C248844208D10121102000F035
:100EA00015FB0021102000F011FB2EE0BD4884420C
:100EB00008D10121202000F009FB0021202000F0B2
:100EC00005FB22E0B848844208D10121402000F00F
:100ED000FDFA0021402000F0F9FA16E0B348844200
:100EE00008D10121802000F0F1FA0021802000F0DB
:100EF000EDFA0AE0AE48844207D10121801500F0E6
:100F0000E5FA0021A01500F0E1FA10BD10B50121AD
:100F1000084600F0DBFA0021012000F0D7FA10BDEE
:100F20002DE9F04102460025002600200023002480
:100F3000002791F803C00CF00F0591F803C00CF0E6
:100F4000100CBCF1000F03D091F802C04CEA05056B
:100F500091F800C0BCF1000F31D0146800202BE0E4
:100F60004FF0010C0CFA00F3B1F800C00CEA0306D4
:100F70009E4220D183004FF00F0C0CFA03F7BC43C4
:100F800005FA03FC4CEA040491F803C0BCF1280FF5
:100F900006D14FF0010C0CFA00FCC2F814C00AE0B4
:100FA00091F803C0BCF1480F05D14FF0010C0CFAC9
:100FB00000FCC2F810C0401C0828D1D31460B1F85E
:100FC00000C0BCF1FF0F34DD546800202EE000F1BA
:100FD000080C4FF0010808FA0CF3B1F800C00CEA55
:100FE00003069E4221D183004FF00F0C0CFA03F749
:100FF000BC4305FA03FC4CEA040491F803C0BCF1BD
:10100000280F05D100F1080C08FA0CF8C2F814807A
:1010100091F803C0BCF1480F07D100F1080C4FF064
:10102000010808FA0CF8C2F81080401C0828CED33A
:101030005460BDE8F0814FF6FF710180022181709C
:101040000421C17070470246002093680B400BB129
:10105000012000E0002070470146886880B2704798
:1010600002460020D3680B400BB1012000E00020B5
:1010700070470146C86880B270470161704741619E
:1010800070470AB1016100E041617047C16070477B
:101090004FF480320A438261816182618269826990
:1010A000704702460020434B18684FF68073184083
:1010B00040EA021008433F4B186070473E49C86140
:1010C0007047F0B50A46002300240021002500F0F7
:1010D0000046B6F1004F02D1364EF16901E0354EBF
:1010E0007168C0F3034583B200F44016B6F5401FA3
:1010F00008D121F070612F4E766826F070662D4F72
:101100007E6012E000F48016B6F5801F06D103263B
:1011100006FA05F4A14341F0706106E0460D360180
:1011200003FA06F6B14341F0706122B1460D360173
:1011300003FA06F6314300F00046B6F1004F02D143
:101140001C4EF16101E01B4E7160F0BD30B5002214
:101150008B071C0F0F2303FA04F2164B08338C1075
:1011600053F824309343134C08348D1044F8253041
:1011700023468C1053F824308C07240F00FA04F413
:1011800023430C4C08348D1044F8253030BD0A49F7
:10119000DC3108607047000000080140000C01408D
:1011A000001001400014014000180140001C0140E3
:1011B000002001400000014000002042DF4800689C
:1011C00040F00100DD49086008464068DC490840FD
:1011D000DA49486008460068DA490840D74908609B
:1011E0000846006820F4802008600846406820F423
:1011F000FE0048604FF41F0088607047CF490968BF
:1012000021F48031CD4A11601146096821F4802112
:101210001160B0F5803F03D0B0F5802F0ED106E00D
:10122000C649096841F48031C44A116007E0C349E6
:10123000096841F4A021C14A116000E000BF00BF6D
:10124000704710B501460022002300204A11012AF0
:1012500002D1BA4C236806E0022A02D1B74C236AB5
:1012600001E0B64C636A01F01F02012494401C4067
:101270000CB1012000E0002010BD38B50020009026
:101280000024002500BF3120FFF7DBFF0546009852
:10129000401C00900098B0F5A06F01D0002DF2D056
:1012A0003120FFF7CEFF08B1012400E000242046E2
:1012B00038BD01460020A14A106820F0F80040EA3D
:1012C000C10010607047A0490860704702460020C6
:1012D0009A4B586820F47C1042EA01031843974B5C
:1012E0005860704798490866704701460020934A45
:1012F000506820F003000843506070478F484068F2
:1013000000F00C007047014600208C4A506820F025
:10131000F00008435060704701460020874A50683B
:1013200020F4E06008435060704701460020834A83
:10133000506820F4605040EAC1005060704729B105
:101340007E4A527A02437D4B5A7204E07B4A527ABB
:1013500082437A4B5A7270477B49D8310860704794
:1013600001460020754A506820F440400843506010
:1013700070470021714A20321170704A82F82010A3
:10138000012802D004280AD104E001216B4A20324E
:10139000117005E00521694A2032117000E000BF9C
:1013A00000BF70476949086070476449096A014392
:1013B000624A11627047654944390860704730B528
:1013C00000210022002400235C4D6D6805F00C0113
:1013D00021B1042905D0082923D105E05C4D056021
:1013E00022E05B4D05601FE0544D6D6805F47012FE
:1013F000524D6D6805F48034022505EB92421CB90C
:10140000544D554305600BE04C4D6D6805F40035B7
:101410001DB1504D5543056002E04D4D55430560EB
:1014200002E04B4D056000BF00BF444D6D6805F004
:10143000F0010909484D6B5C0568DD4045603F4D92
:101440006D6805F4E061090A434D6B5C4568DD4059
:1014500085603A4D6D6805F46051C90A3E4D6B5C7C
:101460004568DD40C560354D6D6805F44041890B28
:101470003A4D6B5CC568B5FBF3F5056130BD29B12C
:101480002E4A526902432D4B5A6104E02B4A52699D
:1014900082432A4B5A61704729B1284A9269024314
:1014A000264B9A6104E0254A92698243234B9A6154
:1014B000704729B1214AD2690243204BDA6104E026
:1014C0001E4AD26982431D4BDA61704729B11B4A1B
:1014D000D2680243194BDA6004E0184AD2688243AA
:1014E000164BDA60704729B1144A12690243134B54
:1014F0001A6104E0114A12698243104B1A61704765
:1015000012494039086070470F49C86470470B4959
:10151000C87170470948406A40F0807007494862C6
:10152000704701460020054A92680A400AB101202E
:1015300000E00020704701498872704700100240A7
:101540000000FFF8FFFFF6FE000042428004424226
:1015500000127A0000093D00000000201000002069
:1015600010B50446FE48844208D10121C014FFF79B
:10157000ADFF0021E014FFF7A9FFC4E0B4F1804FF4
:1015800008D101210846FFF7AEFF00210120FFF737
:10159000AAFFB8E0F348844208D101210220FFF7F6
:1015A000A2FF00210220FFF79EFFACE0EE4884423C
:1015B00008D101210420FFF796FF00210420FFF746
:1015C00092FFA0E0E948844208D101210820FFF7FA
:1015D0008AFF00210820FFF786FF94E0E448844258
:1015E00008D101211020FFF77EFF00211020FFF716
:1015F0007AFF88E0DF48844208D101212020FFF7EC
:1016000072FF00212020FFF76EFF7CE0DA48844261
:1016100008D101214014FFF759FF00216014FFF7A2
:1016200055FF70E0D548844209D10121C804FFF775
:101630004DFF00214FF40020FFF748FF63E0D04842
:10164000844209D101210805FFF740FF00214FF432
:101650008010FFF73BFF56E0CA48844209D10121C0
:101660004805FFF733FF00214FF40010FFF72EFF6E
:1016700049E0C548844208D101214020FFF733FFEB
:1016800000214020FFF72FFF3DE0C048844208D1F1
:1016900001218020FFF727FF00218020FFF723FF93
:1016A00031E0BB48844208D101218015FFF71BFFC0
:1016B0000021A015FFF717FF25E0B648844209D1A5
:1016C00001210804FFF702FF00214FF48030FFF7EB
:1016D000FDFE18E0B048844209D101214804FFF71B
:1016E000F5FE00214FF40030FFF7F0FE0BE0AB48B1
:1016F000844208D101218804FFF7E8FE00214FF45D
:101700008020FFF7E3FE10BD00220288944B984230
:101710000ED0994B98420BD0B0F1804F08D0914B2E
:10172000984205D0904B984202D0904B984204D1F9
:101730004FF68F731A404B881A438D4B984207D04F
:101740008C4B984204D04FF6FF431A40CB881A4383
:1017500002808B8883850B880385814B98420BD050
:10176000854B984208D08B4B984205D08A4B9842C3
:1017700002D08A4B984201D10B7A038601238382DF
:10178000704770B5002400220023058C4FF6FE76CA
:1017900035400584028C8388048B4FF68F752C406E
:1017A000B51E2C400D882C43751E2A400D892A43F6
:1017B0004D882A436A4DA8420BD06F4DA84208D0ED
:1017C000744DA84205D0744DA84202D0734DA84272
:1017D00013D14FF6F7752A404D892A434FF6FB7512
:1017E0002A408D882A434FF6FF652B404FF6FF5560
:1017F0002B408D892B43CD892B4383800483CD8857
:101800008586028470BD70B5002400220023058CFB
:101810004FF6EF7635400584028C8388048B48F6BA
:10182000FF752C404FF6FF452C400D884FF6FF7694
:1018300006EA05252C434FF6DF752A400D8906EA96
:1018400005152A434D8806EA05152A43444DA8424A
:1018500002D0494DA8421DD14FF67F752A404D89CF
:101860004FF6FF7606EA05152A434FF6BF752A4064
:101870008D8806EA05152A434FF6FF352B404FF2B7
:10188000FF752B408D8906EA85052B43CD8906EA35
:1018900085052B4383800483CD880587028470BD32
:1018A00070B5002400220023058C4FF6FF663540FA
:1018B0000584028C8388848B4FF68F752C404FF6FD
:1018C000FC752C400D882C434FF6FF552A400D899E
:1018D0004FF6FF7606EA05252A434D8806EA0525D8
:1018E0002A431F4DA84202D0234DA8421DD14FF2DA
:1018F000FF752A404D894FF6FF7606EA05252A43F3
:101900004FF6FF352A408D8806EA05252A434EF614
:10191000FF752B404DF6FF752B408D8906EA0515A6
:101920002B43CD8906EA05152B4383808483CD881C
:101930008587028470BD70B5002200230024058CC9
:101940004EF6FF7635400584038C8488828B48F6FA
:10195000FF752A404FF6FF452A400D8820E0000021
:10196000002C01400004004000080040000C004032
:10197000001000400014004000340140004C0140C1
:10198000005001400054014000180040001C00407D
:101990000020004000400140004401400048014058
:1019A0004FF6FF7606EA05252A434DF6FF752B40D4
:1019B0000D8906EA05352B434D8806EA05352B438C
:1019C000FA4DA84202D0FA4DA84208D14BF6FF7555
:1019D0002C408D894FF6FF7606EA85152C438480CE
:1019E0008283CD88A0F84050038470BD828B4FF273
:1019F000FF331A408283828B4FF6FF7303EA012381
:101A00001A4382837047F0B50C4615460022002128
:101A10000026078C4EF6FF7C07EA0C070784828BB2
:101A2000018C4FF6FF7707EA043640F6FF473A404D
:101A30004FF6FF7707EA05273A434FF6FF7707EAA5
:101A400003373A43D94FB8420ED0D94FB8420BD0E2
:101A5000B0F1804F08D0D74FB84205D0D64FB8422A
:101A600002D0D64FB84206D14DF6FF77394046F442
:101A70008057394305E047F6FF57394044F4805713
:101A8000394382830184F0BD828B4FF6F3731A4091
:101A90008283828B0A4382837047F0B50C461546D9
:101AA000002200210026078C4FF6FF6C07EA0C0786
:101AB0000784828B018C4FF6FF7707EA04264FF6E6
:101AC0000C773A404FF6FF7707EA03172F433A4364
:101AD000B64FB8420ED0B64FB8420BD0B0F1804FDF
:101AE00008D0B44FB84205D0B34FB84202D0B34F7C
:101AF000B84206D14FF6FF57394046F48077394354
:101B000005E04FF2FF57394044F480773943828330
:101B10000184F0BD028B4FF2FF331A400283028B27
:101B20004FF6FF7303EA01231A4302837047F0B5AF
:101B30000C461546002200210026078C4FF6EF7C4C
:101B400007EA0C070784028B018C4FF6FF7707EA40
:101B5000041640F6FF473A404FF6FF7707EA03378F
:101B60003A434FF6FF7707EA05273A438F4FB842CB
:101B70000ED08F4FB8420BD0B0F1804F08D08D4FB0
:101B8000B84205D08C4FB84202D08C4FB84206D133
:101B90004FF6DF77394046F01007394305E04FF63E
:101BA0005F77394044F01007394302830184F0BD68
:101BB000028B4FF6F3731A400283028B0A430283AF
:101BC0007047F0B50C46154600220021068C4FF6F2
:101BD000FE773E400684028B018C4FF60C76324035
:101BE0007E1C06EA03162E433243704EB0420ED0DE
:101BF0006F4EB0420BD0B0F1804F08D06D4EB04266
:101C000005D06D4EB04202D06C4EB04206D14FF6B8
:101C1000FD76314044F00106314305E04FF6F5769C
:101C2000314044F00106314302830184F0BD70B5B8
:101C300005460C465D4885420ED05D4885420BD076
:101C4000B5F1804F08D05B48854205D05A4885429F
:101C500002D05A48854200D100E000BF208850B928
:101C60002389A28861882846FFF7ABFFE1882846D0
:101C7000FFF79EFF25E0208804280AD12389A28847
:101C800061882846FFF753FFE1882846FFF742FFA7
:101C900017E0208808280AD12389A288618828466D
:101CA000FFF7FBFEE1882846FFF7EEFE09E02389F7
:101CB000A28861882846FFF7A6FEE1882846FFF73C
:101CC00095FE70BD2DE9F04105460C460026012722
:101CD000608808B9022600E00026A088012801D10A
:101CE000022700E001272088A0B92389A288618803
:101CF0002846FFF766FFE1882846FFF759FF23894A
:101D00003A4631462846FFF712FFE1882846FFF79A
:101D100001FF13E02389A28861882846FFF707FFA7
:101D2000E1882846FFF7F6FE23893A4631462846E1
:101D3000FFF747FFE1882846FFF73AFFBDE8F0814B
:101D40000A884B881A438B881A43CB881A430B891D
:101D50001A434B891A438B891A43A0F844207047D1
:101D60004FF6FF71818000210180C18041800172A6
:101D700070470021018041808180C18001814181C3
:101D80008181C181704700210180418001218180D2
:101D90000021C18001817047002101804180818044
:101DA000C18001814181818170470000002C014088
:101DB000003401400004004000080040000C0040D6
:101DC00021B1028842F00102028004E002884FF64D
:101DD000FE731A400280704731B1B0F8442042F4DB
:101DE0000042A0F8442005E0B0F84420C2F30E02FF
:101DF000A0F8442070471AB183890B43838102E025
:101E000083898B43838170478182704741EA020353
:101E1000A0F8483070471AB183890B43838102E0F0
:101E200083898B438381704701894FF6F872114093
:101E3000018170470A46002101894FF68F731940CE
:101E400011430181704730B504460D4629462046AE
:101E5000FFF7F0FF208940F00700208130BD2DE919
:101E6000F04104460D4616461F46602D06D13B46FE
:101E7000012231462046FFF75AFE05E03B4601228B
:101E800031462046FFF79DFE29462046FFF7D2FF48
:101E9000208940F007002081BDE8F08130B50C4674
:101EA00000210189C9B24FF6FF7505EA03251543E4
:101EB00025432943018130BD2DE9F04105460E46F9
:101EC00017469846002443463A4631462846FFF7CF
:101ED000E5FF2C894FF6F870044044F007044FF6F4
:101EE0008F70044044F070042C81BDE8F081F0B59F
:101EF00004460D4616461F463B46324629462046B6
:101F0000FFF7CCFF208940F480402081F0BD01859F
:101F1000828270470A46002101884FF68F7319406C
:101F2000114301807047F0B50C4615461E4600214E
:101F3000002200230189028B038C4FF6F877394089
:101F400021434FF6FC473A4040F201173A434FF61F
:101F5000DD773B404FF6FF7707EA06172F433B43F9
:101F6000018102830384F0BD0A460021018B4FF6F4
:101F70008F7319401143018370470A460021018B7A
:101F800048F6FF7319404FF6FF7303EA0223194323
:101F9000018370470A460021818B4FF68F731940E9
:101FA0001143818370470A460021818B48F6FF73F5
:101FB00019404FF6FF7303EA0223194381837047E8
:101FC00021B1028842F08002028004E002884FF6CC
:101FD0007F731A400280704721B1828842F0040268
:101FE000828004E082884FF6FB731A40828070473B
:101FF00021B1828842F00802828004E082884FF694
:10200000F7731A408280704721B1828842F0010242
:10201000828004E082884FF6FE731A408280704707
:102020000A460021018B4FF6F773194011430183D3
:1020300070470A460021018B4FF2FF7319404FF69B
:10204000FF7303EA02231943018370470A46002104
:10205000818B4FF6F77319401143818370470A460D
:102060000021818B4FF2FF7319404FF6FF7303EA93
:1020700002231943818370470A460021018B4FF6E2
:10208000FB7319401143018370470A460021018BFD
:102090004FF6FF3319404FF6FF7303EA022319434B
:1020A000018370470A460021818B4FF6FB7319406C
:1020B0001143818370470A460021818B4FF6FF331D
:1020C00019404FF6FF7303EA0223194381837047D7
:1020D0000A460021018B4FF67F731940114301839B
:1020E00070470A460021018BC1F30E014FF6FF73C2
:1020F00003EA02231943018370470A460021818BBA
:102100004FF67F7319401143818370470A460021BF
:10211000818BC1F30E014FF6FF7303EA02231943CB
:10212000818370470A460021018C4FF6FD731940E8
:102130001143018470470A460021018C4FF6F77362
:1021400019401143018470470A460021018C4FF663
:10215000DF7319404FF6FF7303EA0213194301843A
:1021600070470A460021018C4FF67F7319404FF6E5
:10217000FF7303EA02131943018470470A460021E2
:10218000018C4FF6FF5319404FF6FF7303EA022309
:102190001943018470470A460021018C4FF2FF73F6
:1021A00019404FF6FF7303EA022319430184704775
:1021B0000A460021018C4DF6FF7319404FF6FF735C
:1021C00003EA023319430184704730B50023012428
:1021D0008C40A3B2048C9C430484048C02FA01F565
:1021E000ADB22C43048430BD30B5002304248C40B0
:1021F000A3B2048C9C430484048C02FA01F5ADB2B2
:102200002C43048430BD70B50346002000241846DA
:10221000183001258D40ACB21D8CA5431D8409B139
:10222000082909D100EB6100056825F070050560FB
:102230000568154305600EE00D1FC5F34E052844E3
:10224000056825F4E045056005684FF6FF7606EA67
:1022500002263543056070BD21B1028842F00202BA
:10226000028004E002884FF6FD731A400280704736
:1022700021B1028842F00402028004E002884FF695
:10228000FB731A400280704721B1828842F08002BD
:10229000828004E082884FF67F731A408280704704
:1022A00002884FF6F7731A40028002880A430280C0
:1022B000704782884FF68F731A40828082880A4363
:1022C0008280704702894FF6F8731A4002810289B2
:1022D0000A430281704702894FF67F731A400281D8
:1022E00002890A4302817047818470478185704763
:1022F000818670470187704781877047A0F840103A
:10230000704702884FF6FF431A40028002880A4352
:10231000028070470146888E70470146088F7047DB
:102320000146888F70470146B1F84000704701466A
:10233000888C70470146088D704702460020138A3A
:102340000B400BB1012000E000207047CA4302821D
:10235000704730B50246002000230024158A05EAA4
:102360000103958905EA010413B10CB1012000E0D5
:10237000002030BDCA4302827047000010B50446F9
:10238000FB48844209D101218803FFF79FF800210F
:102390004FF48040FFF79AF832E0F648844209D1C2
:1023A00001214804FFF79FF800214FF40030FFF7A8
:1023B0009AF825E0F048844209D101218804FFF70A
:1023C00092F800214FF48020FFF78DF818E0EB48D9
:1023D000844209D10121C804FFF785F800214FF498
:1023E0000020FFF780F80BE0E548844208D1012186
:1023F0000805FFF778F800214FF48010FFF773F815
:1024000010BD2DE9F04786B005460E460024A246D1
:1024100000BFA1460027B08900B100BF2F462C8A1B
:102420004CF6FF700440F08804432C82AC894EF6D1
:10243000F3100440B088318908437189084304438C
:10244000AC81AC8A4FF6FF400440B0890443AC82B3
:1024500001A8FEF7B4FFC648874202D1DDF810A0FC
:1024600001E0DDF80CA0A88900F4004040B10AEBBF
:10247000CA0000EB0A1031684900B0FBF1F807E030
:102480000AEBCA0000EB0A1031688900B0FBF1F8D2
:102490006420B8FBF0F004012009642101FB1089DD
:1024A000A88900F4004040B1322000EBC900B0FB25
:1024B000F1F000F00700044308E0322000EB0910BF
:1024C0006421B0FBF1F000F00F0004432C8106B052
:1024D000BDE8F0874FF41651016000218180C18072
:1024E00001810C21418100218181704710B5024694
:1024F0000020108A4FF2FF0318400B884C882343BA
:102500008C882343CC8823431843108210BD0021BC
:10251000018041808180C180704721B1828942F46D
:102520000052828104E082894DF6FF731A40828155
:102530007047F0B50346002400260025002040F631
:102540006A17B94200D100BF1846C1F3421401F026
:102550001F06012707FA06F5012C01D10C3004E013
:10256000022C01D1103000E014301AB107682F435B
:10257000076002E00768AF430760F0BD1AB1838AC5
:102580000B43838202E0838A8B4383827047028AF3
:102590004FF6F0731A400282028A0A4302827047A1
:1025A00082894FF2FF731A40828182890A438281B5
:1025B000704721B1828942F00202828104E082895F
:1025C0004FF6FD731A4082817047028A4FF6DF731F
:1025D0001A400282028A0A430282704721B1028AAB
:1025E00042F48042028204E0028A4BF6FF731A40F2
:1025F00002827047C1F308028280704701468888D2
:10260000C0F308007047818941F001018181704762
:10261000028BD2B20283028B42EA0122028370470C
:10262000028B02F47F420283028B0A4302837047CB
:1026300021B1828A42F02002828204E0828A4FF62F
:10264000DF731A408282704721B1828A42F0100201
:10265000828204E0828A4FF6EF731A4082827047CA
:1026600021B1828A42F00802828204E0828A4FF617
:10267000F7731A408282704721B1828942F4004286
:10268000828103E08289C2F30E028281704721B108
:10269000828A42F40062828204E0828A4FF2FF73EF
:1026A0001A4082827047828A4FF6FB731A408282F8
:1026B000828A0A438282704721B1828A42F00202F2
:1026C000828204E0828A4FF6FD731A40828270474C
:1026D00002460020B1F5007F00D100BF13880B40F7
:1026E0000BB1012000E00020704701F40072B2F548
:1026F000007F00D100BFCA430280704770B5024618
:10270000002400230025002040F66A16B14200D1C3
:1027100000BFC1F3421501F01F03012606FA03F3BF
:10272000012D02D19689334006E0022D02D1168A8E
:10273000334001E0968A33400C12012606FA04F475
:102740001688344013B10CB1012000E0002070BDA8
:1027500010B50022002340F66A14A14200D100BF48
:102760000A1201249440A3B2DC43048010BD00008F
:10277000003801400044004000480040004C004048
:10278000005000400CB50020019000906C4800689B
:1027900040F480306A49086000BF6948006800F46E
:1027A000003000900198401C0190009818B90198E1
:1027B000B0F5A06FF1D16248006800F4003010B1AC
:1027C0000120009001E0002000900098012843D1F2
:1027D0005C48006840F010005A49086008460068EC
:1027E00020F0030008600846006840F0020008601E
:1027F0005348406852494860084640684860084667
:10280000406840F4806048600846406820F47C10CE
:1028100048600846406840F4E81048600846006890
:1028200040F08070086000BF4548006800F000700C
:102830000028F9D04248406820F003004049486031
:102840000846406840F00200486000BF3C484068CD
:1028500000F00C000828F9D10CBD10B5FFF792FF6D
:1028600010BD10B53648006840F0010034490860DA
:1028700008464068344908403149486008460068C5
:10288000324908402E4908600846006820F480203C
:1028900008600846406820F4FE0048604FF41F00BE
:1028A0008860FFF7DAFF4FF000602949086010BD2B
:1028B00010B5002100200022214B5B6803F00C01C1
:1028C00021B1042906D0082928D107E0214B224C48
:1028D000236027E01F4B204C236023E0184B5B68EC
:1028E00003F47010164B5B6803F48032022303EB91
:1028F000904022B9194B4343174C23600DE0104B15
:102900005B6803F4003323B1144B4343124C236040
:1029100003E0104B4343104C236003E00D4B0E4C7F
:10292000236000BF00BF064B5B68C3F303130C4C6E
:10293000E15C094B1B68CB40074C236010BD0000D5
:1029400000100240002002400000FFF8FFFFF6FEEA
:1029500008ED00E000127A001400002000093D009C
:102960001800002010B5FEF729FC4FF48030FEF768
:1029700045FCFEF782FC0446012C1FD11020FDF718
:10298000A5FF0220FDF78EFF4FF4E0112004FEF7B3
:102990009DFC0020FEF7B7FC0020FEF7C6FCA0025D
:1029A000FEF7BAFC0120FEF79DFC00BF3920FEF7C0
:1029B00048FC0028FAD00220FEF797FC10BD10B5A5
:1029C0004FF4C060FDF7AEFB10BDFFF7CBFFFFF784
:1029D000F6FF02F073F8054800F061FA00F0D2FA51
:1029E00002E0024800F09CFAFBE7000078000020BB
:1029F000704700BFFEE700BFFEE700BFFEE700BF75
:102A0000FEE7704770477047704700007047F7480F
:102A10000068012803D00120F44980310860704724
:102A2000F2480068012803D10020F0498031086095
:102A30007047EE48001F0068012803D00120EB49D1
:102A40007C3108607047E948001F0068012803D105
:102A50000020E6497C310860704710B5E448807971
:102A600040B9022241F28831012001F054F90020DE
:102A7000E04908600120DE49887110BD10B5DC48CE
:102A80008079012808D1022241F28831104601F0F4
:102A900042F90120D74908600020D549887110BD4E
:102AA0000020D349487070470120D14948707047D1
:102AB00070B505460E463446CD48407800B970BD25
:102AC0000E2D20D0112D0CD0122D13D0132D1BD173
:102AD000A078012802D1FFF79AFF01E0FFF7A0FFDD
:102AE00013E02078012802D1FFF7A3FF01E0FFF7F0
:102AF000AAFF0AE06078012802D1FFF7AEFF01E0EB
:102B0000FFF7BCFF01E000E000BF00BF00BFD6E759
:102B100010B5B9480068401CB7490860B448006B5C
:102B2000006830B1B248006B0068401EB049096BC4
:102B30000860AF48406920B1AD484069401EAC49CB
:102B40004861AB48806920B1A9488069401EA84906
:102B50008861A748C06920B1A548C069401EA44942
:102B6000C861A348006A20B1A148006A401EA0497C
:102B70000862A1480068A1490968401AB0F5FA7FC7
:102B800010D99D4800689D4908609948007C01283B
:102B900004D110219A4800F093FD03E001209349ED
:102BA0007831086002F0CEFC10BD10B523219548A5
:102BB00004F0AAFC28209349C1F813004FF4487090
:102BC000C1F81F0010BD10B54FF4165001F0FCFF06
:102BD00003F023FDFFF7E9FF8B488C49086010BD27
:102BE00070B504466078D0B9A06A8078616BD1F87E
:102BF0001310884202DBFFF71CFF01E0FFF723FF01
:102C00002089616BD1F81F10884204D9FFF708FFB3
:102C1000FFF734FF03E0FFF7FAFEFFF71EFF002087
:102C20007B490870E06804F0DFFE05464FF0333260
:102C3000784B04F005FF05D27548007840F001009C
:102C400073490870A06A8078616BD1F813108842CC
:102C500005DB6F48007840F002006D4908706C4851
:102C6000007830B1012807D0022808D003280CD101
:102C700008E00020607409E00120607406E0022092
:102C8000607403E00320607400E000BF00BF604890
:102C9000007810B101F0E7F801E001F0E8F870BD4C
:102CA00010B501F000FA00221146104601F0F6FAC4
:102CB00002220021102001F0F1FA102356A2002177
:102CC000202001F0CAFA01220221002001F0E6FAD8
:102CD00002221146102001F0E1FA10234EA2022137
:102CE000202001F0BAFA05220421002001F0D6FAD2
:102CF00006220421102001F0D1FA102346A204215B
:102D0000202001F0AAFA0D220621002001F0C6FAC7
:102D10000E220621102001F0C1FA0F2206212020E8
:102D200001F0BCFA10220621302001F0B7FA10237E
:102D300039A20621402001F090FA10BD70B504467A
:102D4000A069002835D14FF47A70A061A06A82781A
:102D500032A1334805F088F81023314A0021282099
:102D600001F07BFAA06A02782CA12D4805F07CF8CE
:102D700010232B4A0221282001F06FFA228927A173
:102D8000274805F071F81023254A0421282001F076
:102D900064FAE06804F028FE05462A460B4621A1A5
:102DA0001F4805F061F810231D4A0621502001F04C
:102DB00054FA70BD10B50446606958B9C820606106
:102DC00000F0C8FD208104F10C0002F021FBA06A94
:102DD00000F0E6FB10BDC16939B94FF4FA71C16169
:102DE00002490968012921D121E04BE018812142E3
:102DF00078000020B4012242B0000020040100202D
:102E0000000C0140D8080020B12A00088C060020E0
:102E1000080100203333E33F3A000000253464000A
:102E20006A070020252E3266000000000021426B58
:102E3000917066490968012900D100E00021426BC8
:102E40001170817909B1012100E00021426B5170BC
:102E50004178426BC2F80310816A8978426BC2F8EC
:102E60000B10816A0978426BC2F80F100189426B1E
:102E7000C2F81710426BC168C2F81B10417C426B4C
:102E8000C2F807107047817801F01001102905D1B0
:102E9000817821F01001817000BF00BF704710B52C
:102EA0000446C82001F047FE02F072F801214848AC
:102EB00002F089F9464802F04CF9206B00F0B3F8B3
:102EC00000F0C4FB00F016FB00F0A4FF0A2141480B
:102ED00002F079F93F4802F03CF900F08DFD0A223A
:102EE0003D49E06A00F09DFD00F0D1FD01213B4825
:102EF00002F069F9394802F02CF901F04CFD00F0BC
:102F000049FD00F0AAFC02F039FAFFF75CFE4FF42D
:102F1000967001F010FE01F0C6F8FFF7C1FE10BD7B
:102F200010B504462046FFF745FFE06A00F07CFD3F
:102F3000606B03F0FFFC2046FFF74DFF2046FFF7D4
:102F4000FDFE2046FFF79FFF2046FFF749FE10BD1C
:102F500010B5032003F070FB10BD10B5002003F086
:102F60006BFB10BD704710B500201D4908604FF481
:102F7000487001F0E0FD01201A49C1F8B40103F0E6
:102F80005BFB10BD10B50020154908604FF4487078
:102F900001F0D1FD01201349C1F8B4014FF448708C
:102FA00001F0C9FD00200E4908604FF4487001F09F
:102FB000C2FD01200B49C1F8B401022003F03CFB23
:102FC00010BD012001497C31086070471481214205
:102FD000112B0008AD3D0008B4000020213D000881
:102FE000B40122420000224270B50446002514E0DC
:102FF000D4F80E20D21C05EB850302EB43021189A5
:10300000D4F80E20D21C05EB850302EB4302506876
:103010000022FEF736F8681CC5B2D4F80E004078DE
:10302000A842E5DC70BDF8B505462F7A687A40BB4A
:10303000D5F80A60002421E004EBC40101EB410152
:103040003144D1F801000121FEF726FA04EBC40057
:1030500000EB40003044B0F80900ADF80000482013
:103060008DF8030004EBC40101EB41013144D1F8B8
:1030700005006946FDF754FF601CC4B2BC42DBDBAF
:1030800073E0687A012870D1002432E0D5F80E1080
:10309000C91C04EB840201EB42010968A14201D979
:1030A000012100E0002108460121FEF7F5F9D5F8DD
:1030B0000E00C01C04EB840100EB41000089A0421B
:1030C00001DD012000E00020ADF8000010208DF8A7
:1030D0000300D5F80E10C91C04EB840201EB420179
:1030E00048686946FDF71CFF2846FFF77DFF601C16
:1030F000C4B2D5F80E004078A042C7DC00242FE00F
:10310000D5F80E102B3104EB840201EB4201096863
:10311000A14201D9012100E0002108460121FEF76A
:10312000BBF9D5F80E002B3004EB840100EB410015
:103130000089A04201DD012000E00020ADF8000080
:1031400048208DF80300D5F80E102B3104EB8402D3
:1031500001EB420148686946FDF7E2FE601CC4B21B
:10316000D5F80E008078A042CADCF8BD2DE9F04702
:1031700004460025A846607A48BB00BF23E0D4F887
:103180000A2005EBC50303EB43031A44B2F8091008
:10319000D4F80A2005EBC50303EB43031A44D2F825
:1031A0000500FDF750FF60B9D4F80A0005EBC50132
:1031B00001EB4101415C0120884040EA08001FFA10
:1031C00080F8681CC5B2207AA842D8DC4DE0607A4D
:1031D00001284AD1002642E0D4F80E20D21C06EB8A
:1031E000860302EB43021189D4F80E20D21C06EBB1
:1031F000860302EB430250680122FDF742FF4FF0C5
:10320000000922E0D4F80E202B3207EB870302EBF3
:1032100043021189D4F80E202B3207EB870302EB0F
:1032200043025068FDF70FFF58B9D4F80E008078BC
:1032300006FB0090C7B20120B84040EA08001FFA20
:1032400080F809F1010000F0FF09D4F80E00807841
:103250004845D7DC2046FFF7C7FE701CC6B2D4F83D
:103260000E004078B042B7DC00BF4046BDE8F087B2
:1032700070B50546002400262868002857D11E2076
:1032800028602846FFF772FF04468D48007830B169
:1032900001280BD0022819D0042847D138E024B1E6
:1032A000884804600120864908703FE0854800682E
:1032B000844207D10220824908708248006840F0A9
:1032C000805602E000207E4908702FE07D480068AB
:1032D00084420AD000207A4908707B4908807948E6
:1032E000006840F00056304670BD77480088401CAA
:1032F0007549088008460088322808DB00200880CD
:1033000004206F49087044F000463046ECE70DE0B9
:103310006C480068844208D00020694908706948F8
:10332000006840F080763046DEE700BF00BF002036
:10333000DAE770B5054600262846FFF799FF0646EE
:1033400006B970BD06F00050D0B3002434E0D5F8C3
:103350000A0004EBC40101EB4101415C01208840FB
:10336000304038B3D5F80A0004EBC40101EB410149
:103370000844D0F80B0048B1D5F80A1004EBC40299
:1033800002EB42021144D1F80B008047D5F80A0045
:1033900004EBC40101EB41010844D0F80F0048B12F
:1033A000D5F80A1004EBC40202EB42021144D1F832
:1033B0000F008047601CC4B2287AA042C7DC7CE0C2
:1033C000FFE706F00040D0B3002434E0D5F80A004F
:1033D00004EBC40101EB4101415C01208840304015
:1033E00038B3D5F80A0004EBC40101EB41010844ED
:1033F000D0F80B0048B1D5F80A1004EBC40202EB78
:1034000042021144D1F80B008047D5F80A0004EBC2
:10341000C40101EB41010844D0F8130048B1D5F8CC
:103420000A1004EBC40202EB42021144D1F813006B
:103430008047601CC4B2287AA042C7DC3DE0FFE7A9
:1034400006F08070C8B3002434E0D5F80A0004EB1D
:10345000C40101EB4101415C01208840304038B398
:10346000D5F80A0004EBC40101EB41010844D0F88F
:103470000B0048B1D5F80A1004EBC40202EB42027B
:103480001144D1F80B008047D5F80A0004EBC401C1
:1034900001EB41010844D0F8170048B1D5F80A10F3
:1034A00004EBC40202EB42021144D1F8170080473A
:1034B000601CC4B2287AA042C7DC00BF41E700000C
:1034C0000C010020100100200E01002008B5012190
:1034D0000420FDF7E1FF4FF48050ADF8000010200C
:1034E0008DF8030003208DF8020069465648FDF769
:1034F00017FD08BD10B5FFF7E9FF4FF480515248A2
:10350000FDF7BBFD10BD08B54FF48050ADF80000CD
:1035100048208DF8030069464B48FDF701FD08BDC2
:1035200008B54FF48050ADF8000010208DF803006E
:1035300003208DF8020069464348FDF7F1FC08BD01
:1035400070B50025002427E000BF4FF480513E48AD
:10355000FDF779FD0028F8D0282001F0C8FA4FF4D3
:1035600080513948FDF76FFD01280ED100BF4FF49F
:1035700080513548FDF767FD0128F8D0C4F10701F7
:1035800001208840C0B2054304E0C4F107010120D6
:1035900088408543601CC4B2082CD5DB284670BD2A
:1035A00010B50446FFF7BCFF4FF480512648FDF7E5
:1035B00066FD122001F0BFFA4FF480512248FDF75A
:1035C0005CFD1E2001F093FAFFF79DFF4FF4805140
:1035D0001D48FDF738FD88BB00BF4FF480511A48E5
:1035E000FDF731FD0028F8D000BF4FF48051164898
:1035F000FDF729FD0128F8D0FFF7A2FF2070FFF7A3
:103600009FFF6070FFF79CFFA070FFF799FFE070CD
:10361000FFF796FF2071FFF783FF4FF480510A48B0
:10362000FDF72BFD207861780844A1780844E17803
:1036300008442179884202D1012010BD01E0002018
:10364000FBE70020F9E700000008014008B5012170
:103650001C20FDF721FF01210846FDF71DFF012178
:103660001948FDF72EFD01211848FDF72AFD01211B
:103670001020FDF711FF4FF40050ADF800001020AE
:103680008DF8030001208DF8020069461048FDF70F
:1036900047FC01210820FDF7FFFE1020ADF80000D7
:1036A0008DF8030001208DF8020069460948FDF7F6
:1036B00037FC0020084908600849C1F8900108BD9E
:1036C000C2684A40C2607047000430000002300007
:1036D00000100140000C0140B40122420080214250
:1036E00008B54FF48050ADF8000003208DF80200BB
:1036F00010208DF803006946A348FDF711FC08BDB2
:1037000008B54FF48050ADF8000003208DF802009A
:1037100048208DF8030069469B48FDF701FC08BD71
:1037200010B5FFF7DDFF0020984908609849C1F8FF
:10373000B001042001F0DBF90120944908609449AC
:10374000C1F8B001042001F0D2F910BD70B50446F3
:10375000FFF7C6FF00208D49086000251EE0E00944
:1037600020B101208949091F086003E00020874932
:10377000091F08606006040E022001F0B8F901205C
:1037800082490860022001F0B2F900208049C1F8A6
:10379000B401022001F0ABF9681CC5B2082DDEDBD4
:1037A00070BD10B5FFF79CFF01207849091F086024
:1037B0007749C1F8B401042001F099F90020734958
:1037C000091F0860042001F092F900207049C1F837
:1037D000B40110BD10B50446FFF7E3FF4620FFF724
:1037E000B5FF2046FFF7B2FFFFF79AFF10BD10B5F7
:1037F0000024FFF785FF01206449091F086001F0DC
:1038000076F901206249C1F8B40101F070F907E0CE
:10381000601CC4B2FA2C03DDFFF782FF012010BD4B
:103820005A48843800680028F2D15849086000BF1F
:10383000F5E710B5044600BFFFF7B3FF4620FFF7DA
:1038400085FFFFF7D4FF0028F6D12046FFF77EFF63
:10385000FFF7CDFFFFF764FF10BD08B50121082079
:10386000FDF71AFE4FF44050ADF8000010208DF81F
:10387000030003208DF8020069464348FDF750FB22
:103880004FF440514048FDF7F8FB0120FFF7A2FF3D
:103890000120FFF7CEFF0720FFF7CBFF1120FFF736
:1038A000C8FF08BD10B5002038490860FFF718FFB1
:1038B00000203749C1F8B001022001F018F90120B9
:1038C00032490860022001F012F900203049C1F8A5
:1038D000B40110BD10B500202C490860FFF700FFAF
:1038E00001202B49C1F8B001022001F000F90120AC
:1038F00026490860022001F0FAF800202449C1F8A6
:10390000B40110BD70B505460024FFF7F9FE00268E
:1039100016E000201D490860022001F0E8F80120AF
:103920001B49C1F8B4016006040E184884380068C9
:1039300008B1601CC4B2012001F0D9F8701CC6B2F5
:10394000082EE6DB15B9FFF7C5FF01E0FFF7AAFF78
:10395000204670BD10B5FFF724FF4720FFF7F6FEA5
:10396000FFF745FF0120FFF7CDFF04464FF6FF703C
:1039700000EA04240020FFF7C5FF204484B2FFF7CB
:10398000CFFE204610BD0000000C0140B481214252
:103990000080214208B501210820FDF77DFD60204F
:1039A000ADF8000010208DF8030001208DF8020012
:1039B00069460D48FDF7B4FA00200C4908600C492F
:1039C000C1F8940108BD0B48006828B10948006897
:1039D000401E08490860704700BFFCE74FF448707C
:1039E0000449086070470000000C014098812142A2
:1039F000008021421401002010B54FF4165001F050
:103A000038F910BD70B505460C461949224688683C
:103A1000294603F043FD01201549087008468480BB
:103A200070BD4280C160704770B50446207800F0D8
:103A30000100D8B10020207000250EE0E26852F8A5
:103A40003500A16803F072FD28B9E16801EBC501FA
:103A50004868804704E0681C85B26088A842EDDCB5
:103A600000BF1E220021A06803F024FD70BD0000ED
:103A7000180100200020C8490860C849C1F8A80101
:103A8000C54928390860C549C1F88001704708B5A3
:103A900001210820FDF700FD10208DF80300032010
:103AA0008DF802004FF40060ADF800006946BC4894
:103AB000FDF736FA4FF48060ADF800006946B8486B
:103AC000FDF72EFA0220ADF800006946B448FDF774
:103AD00027FA0120ADF800006946B148FDF720FA49
:103AE000FFF7C8FF08BDAF480078AE490978491C08
:103AF000AC4A117008287DD2DFE800F00412202FB4
:103B00003E4D5B690120A44908600020A349C1F82B
:103B1000A801A14928390860A049C1F880016AE0DC
:103B200001209D4908609D49C1F8A80100209A49DB
:103B3000283908609949C1F880015CE00020964965
:103B4000086001209549C1F8A80100209249283950
:103B500008609249C1F880014DE000208E4908605C
:103B600001208E49C1F8A8018B492839086000203E
:103B70008A49C1F880013EE00020874908608749F2
:103B8000C1F8A80101208449283908600020834930
:103B9000C1F880012FE000207F4908607F49C1F80B
:103BA000A80101207C49283908607C49C1F88001BE
:103BB00021E00020784908607849C1F8A8017649D9
:103BC0002839086001207549C1F8800113E0002000
:103BD0007449087001207049086000206F49C1F8DD
:103BE000A8016D492839086001206C49C1F880019D
:103BF00001E0FFE700BF00BF70476A4800786949ED
:103C00000978491E674A117008287DD2DFE800F064
:103C10000415233241505E6C072062490870012070
:103C20005D49086000205D49C1F8A8015A4928395A
:103C300008605A49C1F8800167E0012056490860D0
:103C40005649C1F8A8010020534928390860534952
:103C5000C1F8800159E000204F49086001204F4918
:103C6000C1F8A80100204C49283908604B49C1F827
:103C700080014AE000204849086001204749C1F816
:103C8000A80145492839086000204449C1F880014D
:103C90003BE00020404908604049C1F8A8010120EC
:103CA0003D492839086000203C49C1F880012CE0DA
:103CB0000020394908603949C1F8A8010120364976
:103CC000283908603549C1F880011EE000203249DA
:103CD00008603249C1F8A8012F492839086001203D
:103CE0002E49C1F8800110E001202B490860002016
:103CF0002A49C1F8A8012849283908600120274924
:103D0000C1F8800101E0FFE700BF00BF704700B5C8
:103D1000FFF7B0FE00BD244B1874D9609A6070475D
:103D200000B52148C06858B11F48C068401E1E49F0
:103D3000C8600846C06818B900200874FFF7E7FF9C
:103D400019484068401C184948600846406889681E
:103D5000B0FBF1F201FB120080B91348007C58B1AE
:103D6000012802D0022806D102E0FFF7BCFE04E0E1
:103D7000FFF743FF01E000BF00BF00BF0A484068F3
:103D80004FF47A71B0FBF1F201FB120010B9002080
:103D90000549486000BD0000AC81214200802142FD
:103DA000000C014028010020A807002038480068C6
:103DB00070B137480068401E354908600846006801
:103DC00030B900203349086001203349C1F890011F
:103DD0003248007801281CD131480068401C304925
:103DE000086008460068322813D10020086029487E
:103DF000006808B9012000E0002026490860264834
:103E0000D0F8900108B9012000E000202149091DE7
:103E10000860704708B501210820FDF73DFB082028
:103E2000ADF8000010208DF8030003208DF802008B
:103E300069461C48FDF774F808BD01201549086063
:103E400000201549C1F890011420114908607047FD
:103E500001201049086000200F49C1F8900164203A
:103E60000B490860704701200C49087070470B48E7
:103E7000007801280AD10020084908700849086024
:103E80000449086001200449C1F89001704700000E
:103E90002C0100208C81214200802142340100202D
:103EA00030010020000C014010B54FF48041F8486B
:103EB000FDF7E3F84FF40041F548FDF7DEF84FF465
:103EC0000041F348FDF7DBF84FF48041F048FDF77F
:103ED000D6F810BD10B54FF48041ED48FDF7CDF890
:103EE0004FF40041EA48FDF7CAF84FF40041E848B2
:103EF000FDF7C3F810BD10B54FF48041E448FDF75D
:103F0000BCF84FF48041E248FDF7B9F810BD2DE947
:103F1000F04105462C464FF48041DD48FDF7AFF8EF
:103F200000261CE0274607F08007802F04D13902C5
:103F3000D748FDF7A2F804E04FF40041D448FDF75C
:103F40009EF86006040E4FF48041D148FDF795F8C5
:103F50004FF48041CE48FDF792F8701CC6B2082E8F
:103F6000E0DBBDE8F08110B50446FFF79DFF782047
:103F7000FFF7CDFFFFF7BFFF0020FFF7C8FFFFF7F8
:103F8000BAFF2046FFF7C3FFFFF7B5FFFFF7A2FF19
:103F900010BD10B50446FFF787FF7820FFF7B7FF85
:103FA000FFF7A9FF4020FFF7B2FFFFF7A4FF20466D
:103FB000FFF7ADFFFFF79FFFFFF78CFF10BD70B558
:103FC00004460D461DB1E0B2FFF7E3FF02E0E0B2A8
:103FD000FFF7C9FF70BD70B50646002418E004F174
:103FE000B0000021FFF7EBFF00210846FFF7E7FFD5
:103FF00000211020FFF7E3FF002505E001213046F6
:10400000FFF7DDFF681CC5B2802DF7DB601CC4B272
:10401000082CE4DB70BD06E041F6650100E0491EB6
:104020000029FCD1401E0028F6D17047014605E06A
:10403000002001E0421CD0B27B28FBDB0A1EA1F16C
:104040000101F5D1704770B504460D4605F1B00089
:104050000021FFF7B4FF102141EA14100021FFF7FF
:10406000AEFF04F00F000021FFF7A9FF70BD10B5EF
:1040700000218D20FFF7A3FF00211420FFF79FFFF1
:104080000021AF20FFF79BFF10BD10B500218D2050
:10409000FFF795FF00211020FFF791FF0021AE20D0
:1040A000FFF78DFF10BD70B5002418E004F1B000DB
:1040B0000021FFF784FF00210846FFF780FF002161
:1040C0001020FFF77CFF002505E001210020FFF70D
:1040D00076FF681CC5B2802DF7DB601CC4B2082CCB
:1040E000E4DB70BD70B5002418E004F1B0000021DD
:1040F000FFF765FF00210846FFF761FF0021102050
:10410000FFF75DFF002505E001210846FFF757FF97
:10411000681CC5B2802DF7DB601CC4B2082CE4DB40
:1041200070BD2DE9F04707460E469046994600259A
:104130000024A8F12000C5B27F2F02DD0027B01CAB
:10414000C6B2B9F1100F24D131463846FFF77BFFD4
:10415000002408E004EB05114E4A505C0121FFF7F2
:104160002EFF601CC4B2082CF4DB701CC1B23846B0
:10417000FFF769FF002409E004EB05110831454A07
:10418000505C0121FFF71BFF601CC4B2082CF3DB5D
:1041900012E031463846FFF756FF00240AE005EBEF
:1041A00045013D4A02EB4101085D0121FFF707FF90
:1041B000601CC4B2062CF2DBBDE8F08710B50246E5
:1041C000012000E050430B1EA1F10104E1B2F9D13E
:1041D00010BD2DE9FF5F074691461E460E9D4FF02C
:1041E000000A002435E0301B401EC1B20A20FFF750
:1041F000E5FFB9FBF0F00A21B0FBF1F201FB120878
:10420000BAF1000F14D1701EA04211DDB8F1000FF9
:104210000CD1AB4605EBDB71491001FB0471C8B250
:104220002B4620220199FFF77CFF10E04FF0010A96
:10423000AB4605EBDB71491001FB0471C8B208F114
:104240003001CAB22B460199FFF76BFF00BF601C1B
:10425000C4B2B442C7DBBDE8FF9F2DE9F04105467B
:104260000E4614461F460EE022783B46314628464D
:10427000FFF757FF05F10800C5B2782D02DD0025D4
:10428000B01CC6B2641C20780028EDD1BDE8F081D6
:10429000000C0140E4890008BC8700082DE9F041CA
:1042A00080460E461546002731464046FFF7CBFEB6
:1042B00000240AE0F74A02EB8511085D0121FFF7AF
:1042C0007EFE781CC7B2601CC4B2102CF2DB701CDE
:1042D000C1B24046FFF7B7FE00240CE06900491C5C
:1042E000EC4A02EB4111085D0121FFF768FE781CE2
:1042F000C7B2601CC4B2102CF0DBBDE8F0812DE920
:10430000F05F06460F4690461C46DDF828A04FF0A9
:10431000000BE11704EB5171C910A4EBC10131B9D5
:104320002046E11704EB5171C1F3C70506E02046B2
:10433000E11704EB5171C910491CCDB23D4615E09F
:1043400029463046FFF77FFEB1460BE059460BF198
:10435000010B1AF801000121FFF731FE09F10100FC
:1043600000F0FF09C145F1DB681CC5B2A542E7DBDF
:10437000BDE8F09F2DE9FF5F86B014461D464FF063
:10438000010A00200390049005904FF001090026D7
:1043900000BF8346002213462046294603F038FB1F
:1043A00009D285F00040CDE900402046019903F094
:1043B000E3FA064604E02046294603F0DDFA064605
:1043C000304603F0A7FA22462B46CDE9000103F060
:1043D00027FA074688460022AF4B3846414603F08D
:1043E00022FACDE9000103F0E6FA834607E009EB83
:1043F00089004FEA40090AF1010000F0FF0A0A2093
:1044000096FBF0F090FBF9F00028F0D142F210702A
:1044100096FBF0F00A2190FBF1F201FB1200C0B212
:104420008DF80C004FF47A7096FBF0F090FBF1F2EF
:1044300001FB1200C0B28DF80D00642096FBF0F075
:1044400090FBF1F201FB1200C0B28DF80E000A20C1
:1044500096FBF0F090FBF1F201FB1200C0B28DF878
:104460000F000A2096FBF0F100FB1160C0B28DF83E
:1044700010002E208DF811004FF47A70BBFBF0F085
:104480000A21B0FBF1F201FB12008DF8120064204A
:10449000BBFBF0F0B0FBF1F201FB12008DF8130052
:1044A0000A20BBFBF0F0B0FBF1F201FB12008DF82B
:1044B00014000A20BBFBF0F100FB11B08DF81500D1
:1044C00000211498801D03AA1154894608E003A80E
:1044D00010F80900303003A901F8090009F10109B9
:1044E000B9F10A0FF3DB002213462046294603F0F8
:1044F0008FFA08D20AF1010000F0FF0A2D20CAF15C
:10450000050103AA50542E208DF8110000211498A3
:10451000801D03AA1154CAF1050003A942180C23F7
:10452000DDE90610FFF799FE0AB0BDE8F09F2DE91E
:10453000F04F89B08246894617469846DDF84CB060
:10454000012007900020049005900690012400258A
:1045500000BF00264FEAC9604FEA1069384641465D
:1045600003F00AFA0546284603F0E5F93A464346C1
:10457000CDE9000103F054F9CDE902010022464BD8
:10458000DDE9020103F04FF9CDE9000103F013FA70
:10459000064606E004EB840044000798401CC0B2C5
:1045A00007900A20B5FBF0F0B0FBF4F00028F1D141
:1045B00042F21070B5FBF0F00A21B0FBF1F201FB02
:1045C00012008DF810004FF47A70B5FBF0F0B0FBDC
:1045D000F1F201FB12008DF811006420B5FBF0F040
:1045E000B0FBF1F201FB12008DF812000A20B5FBBE
:1045F000F0F0B0FBF1F201FB12008DF813002E2059
:104600008DF815004FF47A70B6FBF0F0B0FBF1F2C4
:1046100001FB12008DF816006420B6FBF0F0B0FB31
:10462000F1F201FB12008DF817000A20B6FBF0F042
:10463000B0FBF1F201FB12008DF818000A20B6FB66
:10464000F0F100FB11608DF8190000210BF106005C
:1046500004AA1154002405E004A8005D303004A928
:104660000855641C0A2CF7DB2E208DF8150000215C
:104670000BF1060004AA11541298C0F1050004A918
:1046800042180C2351464846FFF7E7FD09B0BDE844
:10469000F08F0000350100200088C3402DE9F04173
:1046A00005460F46164600BF05EB45014906080EB4
:1046B0003946FFF7C8FC00240BE006F1100101EBBE
:1046C0004101FB4A02EB4101085D0121FFF777FC44
:1046D000641C062CF1DBBDE8F0812DE9F0410546B4
:1046E0000F46164600BF05EB45014906080E394640
:1046F000FFF7A9FC002409E006EB4601EC4A02EBB7
:104700004101085D0121FFF75AFC641C062CF3DB14
:10471000BDE8F0812DE9F047054689461646344646
:10472000002C22DA6442642094FBF0F100FB11407B
:104730000A2190FBF1F0C7B20A2094FBF0F100FBD4
:10474000114000F0FF080D2249462846FFF7C5FF3B
:10475000691CC8B23A464946FFF7A0FFA91CC8B277
:1047600042464946FFF79AFF20E0642094FBF0F1AF
:1047700000FB11400A2190FBF1F0C7B20A2094FB24
:10478000F0F100FB114000F0FF080B2249462846DB
:10479000FFF7A3FF691CC8B23A464946FFF77EFF00
:1047A000A91CC8B242464946FFF778FFBDE8F0872A
:1047B0002DE9F04705468A4616463446002C2DDA88
:1047C00064420D2251462846FFF787FF0A2094FBDA
:1047D000F0F100FB1140C7B20A2094FBF0F00A216F
:1047E00090FBF1F201FB120000F0FF08642094FB43
:1047F000F0F000F0FF09E91CC8B23A465146FFF755
:104800004DFFA91CC8B242465146FFF747FF691C3D
:10481000C8B24A465146FFF741FF2BE00B225146F2
:104820002846FFF75AFF0A2094FBF0F100FB1140E5
:10483000C7B20A2094FBF0F00A2190FBF1F201FBD1
:10484000120000F0FF08642094FBF0F000F0FF0974
:10485000E91CC8B23A465146FFF720FFA91CC8B26E
:1048600042465146FFF71AFF691CC8B24A465146F4
:10487000FFF714FFBDE8F0872DE9F05F05468B4692
:1048800016463446002C00DA64424FF47A7094FBEA
:10489000F0F0C7B24FF47A7094FBF0F100FB1140D6
:1048A000642190FBF1F000F0FF08642094FBF0F12C
:1048B00000FB11400A2190FBF1F000F0FF090A20F3
:1048C00094FBF0F100FB114000F0FF0A3A46594614
:1048D0002846FFF7E3FE691CC8B242465946FFF777
:1048E000DDFEA91CC8B24A465946FFF7D7FEE91CAF
:1048F000C8B252465946FFF7D1FEBDE8F09F2DE9F8
:10490000F05F05460E46144642F21070B4FBF0F01C
:10491000C7B242F21070B4FBF0F100FB11404FF44B
:104920007A71B0FBF1F000F0FF080846B4FBF0F13B
:1049300000FB11406421B0FBF1F000F0FF0964209E
:10494000B4FBF0F100FB11400A21B0FBF1FA0A20A0
:10495000B4FBF0F100FB114B3A4631462846FFF715
:104960009DFE691CC8B242463146FFF797FEA91C5E
:10497000C8B24A463146FFF791FEE91CC8B252461A
:104980003146FFF78BFE291DC8B25A463146FFF764
:1049900085FEBDE8F09F08B501210920FCF77CFDEC
:1049A00001214448FCF78DFB4FF44040ADF8000076
:1049B00010208DF8030003208DF8020069463E4860
:1049C000FCF7AEFA4FF440413B48FCF756FB4FF47E
:1049D000487000F0B0F80021AE20FFF7F0FA002197
:1049E0000846FFF7ECFA00211020FFF7E8FA002153
:1049F0004020FFF7E4FA0021B020FFF7E0FA0021A1
:104A00008120FFF7DCFA0021FF20FFF7D8FA002110
:104A1000A120FFF7D4FA0021A620FFF7D0FA002149
:104A2000A820FFF7CCFA00213F20FFF7C8FA0021A9
:104A3000C820FFF7C4FA0021D320FFF7C0FA0021F5
:104A40000846FFF7BCFA0021D520FFF7B8FA00218D
:104A50008020FFF7B4FA0021D820FFF7B0FA002138
:104A60000520FFF7ACFA0021D920FFF7A8FA0021B2
:104A7000F120FFF7A4FA0021DA20FFF7A0FA0021C5
:104A80001220FFF79CFA0021DB20FFF798FA0021A3
:104A90003020FFF794FA00218D20FFF790FA0021D3
:104AA0001420FFF78CFA0021AF20FFF788FA08BD29
:104AB000BC87000800023000000C014010B56FF008
:104AC0000400FBF77EFB2E4800682E49B0FBF1F096
:104AD0002D4908700846007800EB4001C1EBC0107A
:104AE0004FF6FF7101EAC0002849088010BD014659
:104AF000254A12784A434FF0E0235A6100229A6116
:104B00001A46126942F001021A6100BF4FF0E0221A
:104B1000106900F001021AB100F48032002AF5D0C9
:104B20004FF0E022126922F001024FF0E0231A61F7
:104B300000229A6170470146144A12884A434FF096
:104B4000E0235A6100229A611A46126942F001027A
:104B50001A6100BF4FF0E022106900F001021AB1A3
:104B600000F48032002AF5D04FF0E022126922F0E2
:104B700001024FF0E0231A6100229A6170470000A1
:104B80001400002000127A0076060020780600202B
:104B900070B504460D46E1B2DB48FDF72BFD00BFC2
:104BA0004021D948FDF794FD0028F9D0204670BD7A
:104BB00010B500BF2021D448FDF78AFD0128F9D0A7
:104BC000D148FDF71BFD10BD10B586B0044601218C
:104BD00044F20400FCF760FCCB48FDF7CFFB4FF438
:104BE0000070ADF8140003208DF8160018208DF821
:104BF000170005A9C548FCF793F94FF48060ADF89C
:104C0000140004208DF8170005A9C048FCF788F9A6
:104C100025208DF8000000208DF8010001208DF87E
:104C200002008DF803006846FBF781FA019400202A
:104C3000ADF80800ADF80A00ADF80C00ADF81000B2
:104C40000C20ADF80E0001A9AF48FDF7DAFB0122F8
:104C500040F22551AC48FDF76CFC012240F22441A2
:104C6000A948FDF766FC0121A748FDF756FC06B0F0
:104C700010BD10B586B0044601210420FCF70CFCE1
:104C800001214804FCF715FCA148FDF777FB04203F
:104C9000ADF8100003208DF8120018208DF81300D5
:104CA00004A99A48FCF73CF90820ADF8100004204C
:104CB0008DF8130004A99548FCF732F90094002000
:104CC000ADF80400ADF80600ADF80800ADF80C0032
:104CD0000C20ADF80A0069468D48FDF792FB0122D1
:104CE00040F225518A48FDF724FC012240F224417C
:104CF0008748FDF71EFC26208DF8140003208DF850
:104D000015008DF8160001208DF8170005A8FBF797
:104D10000EFA01217E48FDF700FC06B010BD10B56B
:104D200086B0044601218804FCF7C3FB012108205A
:104D3000FCF7B2FB7748FDF721FB4FF48060ADF83C
:104D4000140003208DF8160018208DF8170005A90F
:104D50007148FCF7E5F84FF40060ADF8140004204A
:104D60008DF8170005A96C48FCF7DAF827208DF8B4
:104D7000000003208DF801008DF8020001208DF85D
:104D800003006846FBF7D3F901940020ADF8080052
:104D9000ADF80A00ADF80C00ADF810000C20ADF82D
:104DA0000E0001A95B48FDF72CFB012240F22551C2
:104DB0005848FDF7BEFB012240F224415548FDF75B
:104DC000B8FB01215348FDF7A8FB06B010BD70B534
:104DD00004460D4629462046FDF70CFC00BF402145
:104DE0002046FDF775FC0028F9D070BD70B505466A
:104DF0000C4603E021782846FFF7E9FF14F8011B71
:104E00000029F7D170BD2DE9F04107460D46164641
:104E1000002405E0295D3846FFF7D9FF601C84B205
:104E2000B442F7DBBDE8F08108B540F225513648C1
:104E3000FDF764FC60B13448FDF7E0FB3749384AC0
:104E40001288885436480088401C3549088011E093
:104E500040F224412C48FDF751FC58B12A48FDF797
:104E6000CDFB00902E4801882C4800F0B5FB0020B7
:104E70002B49088008BD08B540F225512448FDF7AC
:104E80003DFC60B12248FDF7B9FB2649264A12884D
:104E9000885425480088401C2349088011E040F2CE
:104EA00024411B48FDF72AFC58B11948FDF7A6FB21
:104EB00000901D4801881B48FEF7A4FD00201A49F8
:104EC000088008BD08B540F225511248FDF716FCD0
:104ED00060B11048FDF792FB1449154A12888854B6
:104EE00013480088401C124908800CE040F224411D
:104EF0000848FDF703FC30B10648FDF77FFB009042
:104F000000200B49088008BD00380140000801401E
:104F10000044004000480040000C0140BC07002055
:104F20007A060020EE0700207C0600200E080020F4
:104F30007E0600207FB505460C4601210846FCF799
:104F4000B8FAADF80850ADF804400020ADF80A00FA
:104F5000ADF8060001A94FF08040FCF7D5FB012217
:104F600011469007FCF747FF1C208DF80000002039
:104F70008DF8010003208DF8020001208DF8030058
:104F80006846FBF7D4F801218807FCF719FF7FBDBD
:104F900010B540F2CF216320FFF7CCFFAC21C2480F
:104FA00002F0B2FA10BD10B50121C048FDF7D1F9E9
:104FB00038B10121BD48FDF7DDF90021BB48FCF700
:104FC000FFFE10BD7FB505460C4601210420FCF70D
:104FD00070FAADF80450ADF800400020ADF80600BE
:104FE000ADF802006946B148FCF78EFB012211467C
:104FF000AE48FCF700FF0121AC48FCF7E1FE1E20A3
:105000008DF80C0000208DF80D0002208DF80E00A8
:1050100001208DF80F0003A8FBF789F87FBD10B5BC
:1050200001218807FDF795F9002844D00121880760
:10503000FDF7A0F9002431E09B48001D00EB0410AF
:10504000007B012828D19848001D00EB041040681F
:10505000401C9549091D01EB041148609248001D50
:1050600000EB041041689048001D00EB04108068BC
:10507000814211D300218C48001D00EB04104160D7
:105080008948001D00EB0410006828B18649091DFD
:1050900001EB041108688047601CC4B28248008894
:1050A000A04201DD0A2CC7DB7F48D0F8A800401CD5
:1050B0007D49C1F8A80010BD10B501217C48FDF75D
:1050C00048F9002844D001217948FDF753F900241C
:1050D00031E07548001D00EB0410007B012828D149
:1050E0007148001D00EB04104068401C6E49091D0A
:1050F00001EB041148606C48001D00EB041041688E
:105100006948001D00EB04108068814211D3002122
:105110006548001D00EB041041606348001D00EB72
:105120000410006828B16049091D01EB04110868EA
:105130008047601CC4B25C480088A04201DD0A2C94
:10514000C7DB5948D0F8A800401C5749C1F8A8004F
:1051500010BD0246002110E05348001D00EB011075
:105160000068904207D101234F48001D00EB011059
:10517000037300207047481C81B24B480088884266
:1051800001DD0A29E8DB4FF0FF30F3E7024600219A
:1051900010E04548001D00EB01100068904207D167
:1051A00000234148001D00EB0110037300207047ED
:1051B000481C81B23C480088884201DD0A29E8DBAE
:1051C0004FF0FF30F3E70246374800880A2812DA2A
:1051D00035480388001D00EB0310816032480388C6
:1051E000001D00EB031002602F480088401C2E4B6E
:1051F0001880002070474FF0FF30FBE702462A4836
:1052000000880A2812DA28480388001D00EB0310E2
:10521000816025480388001D00EB031002602248CE
:105220000088401C204B1880002070474FF0FF3052
:10523000FBE7F0B5A9B006460025A02101A802F0C1
:1052400063F9002417E01848001D00EB0410006803
:10525000B0420ED001A800EB05111348001D00EB71
:10526000041090E88C00C06881E88C00C860681C5D
:10527000C5B2601C84B20C480088A04201DD0A2C33
:10528000E1DB00240AE00848001D00EB041101A83E
:1052900000EB04178DCF8DC1601C84B20A2CF2DBA9
:1052A0000148058029B0F0BD2C080020000800400E
:1052B0000004004000B585B001214802FCF7ECF87D
:1052C00001208DF80500002003904FF4602002902B
:1052D0000020009001208DF810008DF80400694630
:1052E0005948FAF7B4FF4FF44040FCF739F8072368
:1052F000012211465448FBF742F801224FF408718D
:105300005148FAF7E6FF01214F48FAF7CCFF4E4823
:10531000FAF7EBFF02E04C48FAF7F6FF4A48FAF7D3
:10532000E9FF0028F7D100BF4748FAF7F2FF00284D
:10533000FAD101214448FAF7F6FF05B000BD08B5DF
:1053400012208DF8000001208DF801008DF8020078
:105350008DF803006846FAF7EAFE08BD08B501219A
:105360000420FCF799F80220ADF8000000208DF829
:10537000030069463548FBF7D3FD08BD10B5FFF7BC
:10538000EDFFFFF7DCFFFFF795FF10BD00B58BB019
:1053900001210846FCF773F82D48FBF759F92A4814
:1053A0004C3000902B480190002002900120039087
:1053B0000020049080200590400006908000079017
:1053C000202008900002099000200A906946204899
:1053D000FBF7E0F901211E48FBF707FA0BB000BD0F
:1053E00010B504E01848FBF731F81B4908804FF46A
:1053F00008711548FBF714F90128F3D04FF4087130
:105400001148FBF71FF910BD134909880180704747
:105410002DE9F05F82461048008802F076FA834654
:1054200002F0E2FA064600220C4B02F0FCF90446B8
:105430000B4A0C4B02F0F7F9804602F019FBCAF850
:105440000000BDE8F09F000000240140000801407A
:105450000800024080060020820600200000543F21
:105460000AD7A3703D0AD73F2DE9F04104460F4605
:10547000904600253E4604B11FB94FF0FF30BDE80D
:10548000F081002552E0601C405D16284AD2DFE81A
:1054900000F03E3F4049494142434449494949455A
:1054A00047484618250B3238B0784549887045483A
:1054B000006828B1611C485D4149424A1268904722
:1054C00031E030783E4908703E48006828B1611CE0
:1054D000485D3B493B4A1268904724E07078384960
:1054E00048703848006828B1611C485D3449354A25
:1054F0001268904717E0D6F813003149C1F813003D
:1055000011E0D6F81F002E49C1F81F000BE00AE099
:1055100009E008E007E006E005E004E003E002E05F
:1055200001E000E000BF00BF681CC5B22078A842BF
:10553000A9DC0020A3E7704710B52321204801F023
:10554000E3FF10BD20480068401C1F4908607047F9
:105550001D4800687047012080F3138800BF00BF1A
:105560001A48006800F4E06019490843001D174913
:105570000860BFF34F8F00BF00BFFEE77047704762
:1055800070B505460E4600240DB9601E70BD00249E
:105590000DE0295D0F48FFF71AFC022C06D3285DA9
:1055A000FF2803D155210B48FFF711FC641CB442BE
:1055B000EFD3002400E0641CB442FCD33046E5E79E
:1055C000D80800208C060020840600200CED00E0A6
:1055D0000000FA050038014070B504460D4600266B
:1055E0000CB9701E70BD2A462146FB4801F0F8FE3A
:1055F0000646AE4202D04FF0FF30F3E73046F1E707
:10560000014611B94FF0FF30704700200860486034
:10561000FF20087048700020F6E770B504460D467C
:1056200014B94FF0FF3070BD2821EC4801F06CFF39
:105630002A462146E948801C01F04DFFE7484D38D5
:10564000A0F86F50012180F84E10FFF781FFE34969
:105650004D39C1F871000020E5E702460021002025
:10566000137803F0010303B1491C1378C3F340031B
:1056700003B1491C1378C3F3800303B1491C09B972
:10568000002007E001F007030BB9C80802E001237E
:1056900003EBD10070472DE9FE4F05460C46164638
:1056A0004FF00009C84600270020009001900290AA
:1056B0002888ADF800000DB104B11EB94FF0FF30DD
:1056C000BDE8FE8F0221684601F04AFCB0F1FF3FC1
:1056D00002D14FF0FF30F3E76846FFF7BEFF814687
:1056E00009F1020007449DF8000000F0010098B1A4
:1056F00011212278601C81542078401C20704B4678
:10570000AA1C0121404601F0CEFC08B1012000E0B6
:105710000020307008F101089DF80000C0F340003F
:1057200098B112212278601C81542078401C20708E
:105730004B46AA1C0121404601F0B5FC08B10120EE
:1057400000E00020707008F101089DF80000C0F32F
:10575000800098B113212278601C81542078401C6D
:1057600020704B46AA1C0121404601F09CFC08B168
:10577000012000E00020B07008F101089DF8000051
:105780000121B1EBD01F13D114212278601C815468
:105790002078401C2070E95D8DF805107F1C9DF875
:1057A00005206FF02701012001F0FAFBC6F8130075
:1057B0009DF80100C0F38000B8B115212278601C6B
:1057C00081542078401C2070E9190988ADF80A102E
:1057D000BF1CBDF80A0001F00AFA824652460121B8
:1057E000084601F0DDFBC6F81F00002068E72DE940
:1057F000F04104460D460027002604B11DB94FF0C4
:10580000FF30BDE8F081FFF7A3FE06462878217837
:1058100088420BD071484D3890F8D10020F001003B
:10582000401C6E494D3981F8D100012768786178B4
:1058300088420BD069484D3890F8D10020F0020022
:10584000801C66494D3981F8D1000127A878A178DC
:1058500088420BD061484D3890F8D10020F0040008
:10586000001D5E494D3981F8D1000127D5F80300AC
:10587000D4F8031088420BD058484D3890F8D10026
:1058800020F00800083055494D3981F8D100012732
:10589000D5F80700D4F8071088420BD04F484D3890
:1058A00090F8D10020F0100010304C494D3981F8AB
:1058B000D1000127D5F81300D4F8131088420BD07B
:1058C00046484D3890F8D10020F0800080304349A0
:1058D0004D3981F8D1000127D5F81F00D4F81F10E9
:1058E00088420BD03D484D3890F8D20020F004009B
:1058F000001D3A494D3981F8D2000127D5F80B0037
:10590000D4F80B10884212D035480068301A41F2A2
:10591000707188420BD331484D3890F8D10020F097
:10592000200020302D494D3981F8D1000127D5F8CC
:105930000F00D4F80F10884212D029480068301A9E
:1059400041F2707188420BD324484D3890F8D10051
:1059500020F04000403021494D3981F8D100012725
:10596000D5F81700D4F81710884212D01C480068E8
:10597000301A41F2707188420BD318484D3890F8B4
:10598000D20020F00100401C14494D3981F8D200AA
:105990000127D4F81B10D5F81B0002F085F812D0AF
:1059A0000F480068301A41F2707188420BD30B48DF
:1059B0004D3890F8D20020F00200801C07494D3984
:1059C00081F8D2000127012F03D1FFF7C1FD04495F
:1059D0000860384615E70000720A002048090020D8
:1059E000900600202DE9F04786B005460F46904608
:1059F0004FF0000900260024002000900190029042
:105A0000FE48B0F8D100ADF800000221684601F070
:105A1000A7FAA41C05B127B94FF0FF3006B0BDE8C6
:105A2000F087F64890F8D10000F0010038B12B78EB
:105A30000DEB04020121304601F0F7FA761CEF4825
:105A400090F8D100C0F3400038B16B780DEB040240
:105A50000121304601F0E9FA761CE84890F8D100BF
:105A6000C0F3800038B1AB780DEB04020121304661
:105A700001F0DBFA761CE14890F8D100C0F3C000D9
:105A800078B1D5F80300022802D34FF0FF30C5E704
:105A9000D5F803300DEB04020121304601F0C5FAC0
:105AA000761CD64890F8D100C0F3001078B1D5F834
:105AB0000700042802D34FF0FF30AFE7D5F80730D6
:105AC0000DEB04020221304601F0AFFAB61C16B904
:105AD0004FF0000908E006F0070010B94FEAD609B8
